S01800006275696C642F6D6963617A2F6D61696E2E73726563E5
S11300000C9449000C944E050C9458050C9462050C
S11300100C946C050C9476050C9480050C94EC06F9
S11300200C948A050C9468000C9468000C94ED16EA
S11300300C947F0C0C9418050C942E050C94CC0590
S11300400C9407050C94B30E0C9468000C9468008F
S11300500C9468000C9468000C9468000C9468007C
S11300600C9423050C9468000C9468000C946800AC
S11300700C9468000C9468000C9468000C9468005C
S11300800C9468000C9468000C94680000081C1818
S1130090141011241FBECFEFD0E1DEBFCDBF11E09D
S11300A0A0E0B1E0E4E5F5E300E00BBF02C0079097
S11300B00D92AE3AB107D9F713E0AEEAB1E001C050
S11300C01D92A732B107E1F70E9427150C94A91AD3
S11300D00C9400008FB7F894992708958FBF089562
S11300E02F923F924F925F926F927F928F929F9244
S11300F0AF92BF92CF92DF92EF92FF920F931F9332
S1130100CF93DF93CDB7DEB729970FB6F894DEBF50
S11301100FBECDBF6FB76983F8942090030230906F
S11301200402409005025090060266247724882435
S11301302EE4A22E93E8B92ECC24DD24EE24FF2451
S113014000E010E0222D332D442D552D662D772D02
S1130150882D90E00E948B182A833B834C835D8317
S11301606E837F8388879987822E932EA42EB52E43
S11301702401350100E20E948919A22EB32EC42E57
S1130180D52EA301920156954795379527952A0DAB
S11301903B1D4C1D5D1D57FF05C05F772F5F3F4F13
S11301A04F4F5F4F209303023093040240930502A4
S11301B050930602E9818E2F99278FBFCA01B90196
S11301C029960FB6F894DEBF0FBECDBFDF91CF9155
S11301D01F910F91FF90EF90DF90CF90BF90AF9061
S11301E09F908F907F906F905F904F903F902F9053
S11301F00895FC0182819927582F442781819927EA
S1130200482B592BCA01892F992786958695837087
S113021090708230910559F08330910559F0892B03
S113022019F420E030E008C02CE93FEF05C022E0DB
S113023030E002C028E030E0CA0184E0989F812DBC
S1130240992711248230910559F08330910559F092
S1130250892B19F480E090E008C08CE99FEF05C079
S113026082E090E002C088E090E0280F391F2A5F06
S11302703F4FCF01820F931F0895282F9FB7F89403
S1130280662349F0E82FFF27E355FD4F808188233B
S113029011F021E006C0E22FFF27E355FD4F6083F4
S11302A020E0892F99278FBF822F99270895E82F5F
S11302B08FB7F894282F332790E0FF27E355FD4F9D
S11302C08081861709F491E02FBF892F992708951B
S11302D0882311F06E9A08956E980895882311F07A
S11302E06F9A08956F98089580E00E946801BA9A01
S11302F0BB98B99AB89A6C9A80E00E946E016B9888
S11303006A9881E00E946801709A8DB18C7F8DB9E2
S113031008950F931F93CF93DF93182F8FB7F894FB
S1130320C82FDD270C2F61E080E00E943D01882367
S113033021F0CFBF85E090E024C08091060188239E
S1130340A1F48091B801823081F409C082E08093E5
S1130350B801109206010E947401B89AC0981093D3
S1130360030180E00FBF99270CC08091B801882356
S113037069F38FB7F89499271092AD028FBF81E08B
S1130380F1CFDF91CF911F910F910895282F9FB73F
S1130390F894E82FFF27E252FE4F80818F3F81F4CB
S11303A0E0912503E21771F40BC02093170304C0F6
S11303B0FF27E252FE4F20832093250320E007C04D
S11303C025E005C0809117038F3F91F7EECF892F69
S11303D099278FBF822F992708951F93182F81E0A3
S11303E00E9468011FB9779BFECF8FB199271F9197
S11303F008958F929F92AF92BF92CF92DF92EF9225
S1130400FF920F931F93CF93DF938FB7F89499279D
S1130410C0902003D09021038090A6029090A70260
S1130420C0917C02D0917D022091C1013091C20122
S1130430EAE0AE2EB12CAC0EBD1E2A153B0508F425
S113044059018FBF7401EC0EFD1E86010C0F1D1F98
S113045014C0C114D10419F0F801808101C080E0F6
S11304600E94ED018114910411F0F701808321961B
S11304700894E11CF11C0F5F1F4FC5010197C817B9
S1130480D90738F381E00E946E019FB7F894C11434
S1130490D10431F0CC0EDD1EF60180818FB901C08C
S11304A01FB8D0937D02C0937C02892F99278FBFF8
S11304B080E090E0DF91CF911F910F91FF90EF903A
S11304C0DF90CF90BF90AF909F908F9008952FB7FB
S11304D0F89433275093C2014093C10190932103B0
S11304E0809320037093A7026093A60210927D026A
S11304F010927C022FBF452B29F08FB10E94F90185
S11305009927089589E00E94C60180E090E008954B
S11305108FB7F89499271092AF028FBF0895EF9286
S11305200F931F93AE2D99E0899FF0011124EE578C
S1130530FD4F408351836283738304831583268331
S11305403783A17080858E7F8A2B826080878DE0BF
S11305500E94C6011F910F91EF9008957FB7F89400
S113056062B72091C4013091C5014091C6015091F8
S1130570C70106B601FE0FC081B792B7280F311D1F
S1130580411D511D2F5F3F4F4F4F5F4F290F311DAD
S1130590411D511D04C0260F311D411D511D872FC2
S11305A099278FBFCA01B9010895AF92BF92CF9224
S11305B0DF92EF92FF920F931F93F82E5A016B0173
S11305C00E94AE02AB01BC01EE24960185018F2D81
S11305D00E948F021F910F91FF90EF90DF90CF90B8
S11305E0BF90AF900895DF92EF92FF920F931F9305
S11305F08FB7F894282F3327D22E91B782B746B7F6
S1130600981711F041FF02C02FBF6AC080917B028E
S11306108823E1F10E94AE02E090A902F090AA02C0
S11306200091AB021091AC022091D6013091D70118
S11306304091D8015091D9016E197F09800B910B1B
S1130640621773078407950720F010927B0271E00C
S11306501EC02E0D3F1D401F511F8091C40190915B
S1130660C501A091C601B091C701281B390B4A0BE3
S11306705B0B273E31054105510540F4822F2230A2
S113068010F070E005C070E082E002C070E086EE19
S1130690682F615000B601FCFDCF82B7681709F4DA
S11306A06F5F2091C4013091C5014091C601509102
S11306B0C701DA01C9010196A11DB11D860F911D63
S11306C0A11DB11D82179307A407B50710F4622F6B
S11306D0609561BFDFBE772319F08CE00E94C601EC
S11306E01F910F91FF90EF90DF900895AFB7F894AA
S11306F0BB27E1E0E0937B026093A9027093AA0216
S11307008093AB029093AC022093D6013093D7012F
S11307104093D8015093D901AFBF0E94F3020895CA
S113072080E88093DA011092FD0110921A0310926E
S113073016031092F9010895CF93DF93FC0115A6D7
S1130740DC019E96ED011B821A82198280E886A73D
S1130750DF91CF9108958FB7F894609180027091E2
S113076081022CB53DB506B602FE04C06F5F7F4F13
S11307702CB53DB599278FBF88279927CB017727BB
S1130780662744275527622B732B842B952B0895BA
S1130790EF92FF920F931F930E94AB037B018C0196
S11307A020910F02309110024091110250911202D7
S11307B080910A0290910B02A0910C02B0910D025B
S11307C0820F931FA41FB51FE216F3060407150733
S11307D030F082179307A407B50758F005C08217B5
S11307E09307A407B507E0F5E816F9060A071B07FF
S11307F0B8F59C01AD012E193F09400B510B213076
S113080060E8360760E0460760E0560768F180E07C
S113081090E8A0E0B0E0E80EF91E0A1F1B1FE0926A
S11308200F02F0921002009311021093120280E062
S113083090E8AFEFBFEFE80EF91E0A1F1B1F205010
S113084030484040504020930A0230930B024093BA
S11308500C0250930D0220E030E840E050E014C058
S113086020E030E040E050E080930F0290931002CB
S1130870A0931102B093120210920A0210920B027A
S113088010920C0210920D02A901B7012CB53DB5CE
S1130890C9018E199F0903968417950720F0B901A1
S11308A06D5F7F4F02C0640F751F6115710511F4F0
S11308B061E070E0615070407BBD6ABD80E186BF3D
S11308C087B7806187BF1F910F91FF90EF900895C4
S11308D00F931F930FB7F894112760930F0270932F
S11308E01002809311029093120220930A02309313
S11308F00B0240930C0250930D020E94C8030FBFD9
S11309001F910F910895CF92DF92EF92FF920F9370
S11309101F93CF93DF938C01F62E6A01E22E8FB7DB
S1130920F894C82FDD2760E080E00E9457018823F7
S113093021F0CFBF80E090E01EC0CFBF0F0D111D8E
S1130940802F80680E94ED01F82E16950795802F60
S1130950807C0E94ED010E2D0AC0EE2DFF27E01BC6
S1130960F109EC0DFD1D80810E94ED010150002371
S1130970A1F78F2D9927DF91CF911F910F91FF90B0
S1130980EF90DF90CF90089597B79F7D97BF90E247
S113099096BF882319F08EB5806402C08EB58F7B14
S11309A08EBD87B7806287BF80E090E00895AF92E4
S11309B0BF92CF92DF92EF92FF920F931F93CF9348
S11309C0DF93CDB7DEB728970FB6F894DEBF0FBE1E
S11309D0CDBF20E070E0E0910001F091010132E12F
S11309E04DE65CE46FE4809101019E2F28960FB6DA
S11309F0F894DEBF0FBECDBFDF91CF911F910F9151
S1130A00FF90EF90DF90CF90BF90AF9008951F922A
S1130A100F920FB60F9211248F9383B783BF00B642
S1130A2000FCFDCF8F910F900FBE0F901F90189573
S1130A3078941F920F920FB60F9211240F900FBE4D
S1130A400F901F90189578941F920F920FB60F92E3
S1130A5011240F900FBE0F901F90189578941F9239
S1130A600F920FB60F9211242F933F938F939F935E
S1130A702FB7F894332780918002909181020196D8
S1130A8090938102809380022FBF9F918F913F9119
S1130A902F910F900FBE0F901F9018951F920F92D9
S1130AA00FB60F9211240F900FBE0F901F90189540
S1130AB01F920F920FB60F9211240F900FBE0F903A
S1130AC01F9018951F920F920FB60F9211240F903A
S1130AD00FBE0F901F9018951F920F920FB60F9292
S1130AE011240F900FBE0F901F9018951F920F9214
S1130AF00FB60F9211240F900FBE0F901F901895F0
S1130B001F920F920FB60F9211240F900FBE0F90E9
S1130B101F9018951F920F920FB60F9211240F90E9
S1130B200FBE0F901F901895CF93DF93CDB7DEB70C
S1130B302C970FB6F894DEBF0FBECDBF8FB7F894D5
S1130B40282FAE014F5F5F4FDA01E3EBF2E088E05C
S1130B5001900D928150E1F78091FE019091FF0187
S1130B608987892F99278A8780911302909114028B
S1130B708B87892F99278C872FBF2CE060E080E634
S1130B8091E00E9483042C960FB6F894DEBF0FBE4A
S1130B90CDBFDF91CF9108951F920F920FB60F92A0
S1130BA011242F933F934F935F936F937F938F936E
S1130BB09F93AF93BF93EF93FF9383B783BF00B625
S1130BC000FCFDCF81B799270196AA27BB27209166
S1130BD0C4013091C5014091C6015091C701280F4D
S1130BE0391F4A1F5B1F2093C4013093C5014093F2
S1130BF0C6015093C70178940E94F302FF91EF91CC
S1130C00BF91AF919F918F917F916F915F914F9120
S1130C103F912F910F900FBE0F901F9018950F9337
S1130C201F93182F0FB7F89461E080E00E943D01F4
S1130C30882371F510930301809106018823A9F597
S1130C408091B801823089F588E00CC00E9474015B
S1130C508091B801882349F481E08093B80110920F
S1130C60FA018AE00E94C6012AC080910E028F3FD9
S1130C7031F5E0910501EE2311F11CC0109204013D
S1130C8004C0FF27E25FFD4F10821092050117C0D8
S1130C9081E090E002C0880F991F1A95E2F7209135
S1130CA0B701282B2093B7010AC08091B80188238B
S1130CB0E1F6CCCF809104018F3F19F7DFCF802F6D
S1130CC099278FBF80E090E01F910F9108951F93A3
S1130CD083E00E9489019927182F882319F083E063
S1130CE00E940F06812F99271F9108951F93CF9378
S1130CF0DF93182F8FB7F894C82FDD2760E080E0CA
S1130D000E945701882321F0CFBF80E090E005C006
S1130D10CFBF812F0E94ED019927DF91CF911F91C1
S1130D200895EF92FF920F931F93CF93DF93182FA1
S1130D307B01042F8FB7F894C82FDD2760E080E093
S1130D400E945701882321F0CFBF80E090E014C0B7
S1130D50CFBF1064812F99279093400280933F0264
S1130D600E94ED01182F402F5527B70180E090E035
S1130D700E946702812F9927DF91CF911F910F91D4
S1130D80FF90EF900895C0986091BF017091C001E9
S1130D9041E08FE30E949106089582E090E09093F1
S1130DA0EF018093EE0181E08093FD0120E030E0CB
S1130DB080910301843011F421E030E0232B29F4E5
S1130DC084E00E948901882319F40E94C3060895CF
S1130DD084E00E940F0608951F920F920FB60F929F
S1130DE011242F933F934F935F936F937F938F932C
S1130DF09F93AF93BF93EF93FF938091EE019091F4
S1130E00EF01019749F482E090E09093EF01809321
S1130E10EE010E94CD0605C08091F9018F5F809399
S1130E20F901FF91EF91BF91AF919F918F917F91C4
S1130E306F915F914F913F912F910F900FBE0F9043
S1130E401F9018951F938091B701882309F04BC018
S1130E50109103011F3F09F046C060E00E94570152
S1130E60882309F440C081E08093BC028091DD01B5
S1130E708823E1F11092BC0285E090E045C09230F5
S1130E8069F5C09A8091040120E030E08F3F11F4AD
S1130E9021E030E0232BE9F4109306018F3F19F48D
S1130EA02FEF30E00DC0282F3327F901E25FFD4F0B
S1130EB08081809304018F3F11F410930501108306
S1130EC02093FA0181E08093B8018AE00E94C60170
S1130ED005C0109306011092B80111C08091B801A9
S1130EE0882369F00FC081E090E00EC08091060174
S1130EF09091B801882319F2923021F0EFCF80E06D
S1130F000E94680180E090E01F9108951F93CF93A1
S1130F10DF939FB7F894C92FDD271C2F909103010D
S1130F20981721F0CFBF81E090E03AC08FEF809313
S1130F3003013091B7013323F1F48FB7F894992763
S1130F401092AD028FBF0E942207CFBF11C0209321
S1130F50030181E090E002C0880F991F4A95E2F7EF
S1130F60809538233093B70188E00E94C6011FBFE3
S1130F7080E090E015C080E065E0E32FFF270E9449
S1130F800C1A292F492F5527CF01042E02C09595FD
S1130F9087950A94E2F780FDDACF822F8F5FEFCF37
S1130FA0DF91CF911F9108951F93CF93DF938FB754
S1130FB0F894C82FDD271C2F8091EE019091EF014A
S1130FC0892B29F484E00E948607CFBF1EC01092AB
S1130FD0FD018091F901882311F0B79904C00E999D
S1130FE008C0882319F081508093F9010E94CD062E
S1130FF00BC081E090E09093EF018093EE0110929A
S1131000F90184E00E9486071FBFDF91CF911F91F1
S113101008950E949003C09AC09888E00E947606C2
S113102088E00E947606C09A84E00E9486070E94A7
S1131030D4070895FF920F931F93CF93DF93F82E55
S11310408B018FB7F894C82FDD2760E080E00E9401
S11310505701882321F0CFBF80E090E00CC0CFBFC0
S11310608F2D0E94ED01812F99270E94ED01802F81
S11310700E94ED019927DF91CF911F910F91FF906D
S113108008951F931FB7F8948091F801882319F4E9
S113109060E070E009C060E080911F03882309F4D8
S11310A061E081E06827772780910002882319F4A2
S11310B080E090E00AC090E08091B202882309F4B5
S11310C091E081E09827892F9927762F6627770F5B
S11310D0770F770F54E0880F991F5A95E1F7826EC6
S11310E09262682B792B81E10E941A08812F99273B
S11310F08FBF1F9108958FB7F89499276091BB0211
S11311008FBF85E0689FB0011124625D7E4F7064DB
S113111088E10E941A080895EF92FF921F93CF93DB
S1131120DF93E0900102F0900202F70182A5992773
S1131130182F882309F41FE1C0988091F7018117C3
S113114049F0612F77276F717070606E706885E168
S11311500E941A081093F701F70110818FB7F894D1
S1131160C82FDD2760E080E00E945701882311F03A
S1131170CFBF12C0CFBF8EE390E090934002809324
S11311803F028EE30E94ED011150412F552760E08C
S113119070E0C7010E946702DF91CF911F91FF9019
S11311A0EF9008950F931F93CF93DF93EC010FB744
S11311B0F89411270E94F900FC018FE380830FBF8C
S11311C010921D0310921C0361E082E00E943D0115
S11311D0882319F085E090E072C08091BD028F5F92
S11311E08093BD0281508B838FB7F894082F112709
S11311F062E081E00E945701882329F40FBF0E9416
S1131200880281E05BC08FB7F894992724E020938B
S1131210AE028FBFD0934602C09345020FBFFE01BA
S11312203196818129819927982F88273327822B0A
S1131230932B80729C7C8983892F992781832981B0
S1131240982F882733272164822B932B8983892F16
S1131250992781831CA618A619A619AA18AA1FA63D
S113126080E88EA761E06093B102409145025091FD
S113127046028FB7F894282F33278091B9019091B3
S1131280BA018830910511F0019711F02FBF15C0F4
S113129082E090E09093BA018093B90160932603B1
S11312A050930202409301021092C3012FBF0E9487
S11312B06706882311F40E948C0880E09927DF9147
S11312C0CF911F910F910895CF93DF93DA01422FAD
S11312D02D3118F082E090E05EC0ED018B876E83C3
S11312E0872F99278F832FB7F89433278091FE0196
S11312F09091FF012FBFFD018483892F9927858356
S11313002FB7F894332780910701909108012FBFDC
S11313108887892F992789873196818129819927FF
S1131320982F8827332720643868822B932B89834E
S1131330892F99278183435F4C934D5080910A01F3
S1131340882359F010920A01642FCD010E94D2081B
S11313509927282F8823A9F417C0842F99279093BD
S1131360440280934302B093BE01A093BD018EE07A
S11313700E94C60180910A01882349F489E090E023
S11313800AC08FEF80930A01822F992704C010921C
S1131390070280E090E0DF91CF910895109202015E
S11313A0E0917E02F0917F02309721F080911B033F
S11313B080FF08C081E080930201089581E00E94CB
S11313C0C601089520812D50332767817727762F12
S11313D0662786819927682B792BAF0183850E9424
S11313E06409882359F70895CF93DF93FB01DB0148
S11313F016968683892F9927ED01898386E0838752
S113140080917E0290917F02892B19F085E090E013
S11314102BC070937F0260937E02435F40834D50E4
S113142080910201882319F480E090E01DC0838537
S1131430ED0169817727762F662726813327622B72
S1131440732B10920201242FAF010E946409992783
S1131450282F882339F081E08093020110927F02C3
S113146010927E02822F9927DF91CF9108952091C7
S1131470B1013091B2012F5F3F4F3093B2012093FD
S1131480B1018091AE018823B1F581E08093000021
S113149020930200832F9927809301001092DC018E
S11314A01092DB01E0E0F0E0A7E1B2E08C918383ED
S11314B03196F093DC01E093DB011296E431F105FF
S11314C0A9F7209149023327322F2227809148021D
S11314D099278062282B392B20934802232F332706
S11314E0209349024DE167E472E0809108029091F3
S11314F009020E94F40908952091B1013091B201CA
S11315002F5F3F4F3093B2012093B1018091AE0120
S11315108823D9F582E08093000020930200832F72
S11315209927809301008091F1019091F2018093B9
S11315301900892F9927809318008091F3019091C5
S1131540F40180931B00892F992780931A008091BE
S1131550F00180931C00209149023327322F222767
S11315608091480299278062282B392B20934802C6
S1131570232F3327209349024DE167E472E08091E1
S11315800802909109020E94F4090895EF920F93C2
S11315901F9387549240B1F56623A1F51092AE01D2
S11315A080914702813031F5809173028823F9F0EC
S11315B0809193028D7F809393028091B001882360
S11315C071F00E94AE02AB01BC0111E0E12E00E615
S11315D01AEE20E030E083E00E948F0213C040E165
S11315E057E260E070E082E00E94D5020BC00E94E6
S11315F0370A08C0823031F480917302882311F4D1
S11316000E947C0A1F910F91EF900895AF92BF92B0
S1131610CF92DF92EF92FF920F931F93CF93DF93BA
S11316205B016C01C0E0D0E0E2E8F2E0608561FFBC
S113163061C02081318142815381E480F58006813B
S11316401781D601C501821B930BA40BB50B8E1514
S11316509F05A007B10708F44DC060FF03C06D7F6C
S1131660608708C02E0D3F1D401F511F208331830A
S113167042835383C13021F0C23009F041C036C0E7
S11316802091B1013091B2012F5F3F4F3093B201ED
S11316902093B1018091AE01882391F5109200004E
S11316A020930200832F9927809301001092DC017C
S11316B01092DB01E0E0F0E0A7E1B2E08C918383DB
S11316C03196F093DC01E093DB011296E431F105ED
S11316D0A9F74DE167E472E08FEF9FEF0E94F409F0
S11316E0882371F481E08093AF010AC08FE00E94E7
S11316F0C60106C021963996C430D10509F096CFAB
S11317008DE00E94C601DF91CF911F910F91FF9050
S1131710EF90DF90CF90BF90AF9008951F93182F54
S113172081E090E09093BA018093B9011092DD01B9
S11317300E9422078FB7F89499271093B3018FBFA3
S113174084E00E94C6011F9108951F93CF93DF93F5
S1131750142F80910201882389F4C0917E02D091D4
S11317607F02C617D70751F410927F0210927E02AF
S11317700E94CE09612FCE010E94C60ADF91CF914B
S11317801F91089561E081E00E943D018823E9F4FE
S11317908FB7F894282F33278091B4019091B50125
S11317A0892B11F02FBF20C081E090E09093B50108
S11317B08093B4012FBFDD9A0E94AB0324E130E093
S11317C040E050E00E9468040FC062E081E00E94A3
S11317D05701882319F089E090E0089561E081E0E1
S11317E00E945701882319F080E090E0089585E075
S11317F090E00895CF92DF92EF92FF920F931F93A0
S1131800CFB6F894DD240E947000DC01CB0166E4BD
S113181070E00E94181A2BE0E22EF12CE80EF91E5B
S1131820F0922303E09222030E94AB0300271127C6
S1131830A80197010E946804CFBE1F910F91FF90E9
S1131840EF90DF90CF9008951F93CF93DF938FB7DE
S1131850F894C82FDD271C2F8091B9019091BA010B
S11318600897C9F489E00E94760683E00E948607FF
S1131870C09A81E090E09093BA018093B9018FB748
S1131880F894992723E02093B3018FBF84E00E944A
S1131890C601CFBF30C0C09880912603882311F0C1
S11318A085E001C084E00E94760683FD09C080E0E3
S11318B00E94760683FF04C085E090E020E003C028
S11318C083E090E021E09093BA018093B901C09A3B
S11318D01FBF222341F01092C30183E00E948607B8
S11318E00E94FA0B08C00E94AB0320E431E040E000
S11318F050E00E946804DF91CF911F91089578947D
S11319001F920F920FB60F9211241F932F933F93A0
S11319104F935F936F937F938F939F93AF93BF93F3
S1131920EF93FF9387B78F7E87BF78941FB7F894A0
S113193080910A0290910B02A0910C02B0910D02C9
S11319400097A105B10509F051C08091B9019091AA
S1131950BA018530910561F18630910530F4833008
S1131960910549F0049781F51AC087309105F1F08B
S1131970089751F514C0869B0FC084E090E09093C3
S1131980BA018093B9010E94AB0327E030E040E044
S113199050E00E94680418C00E94FA0B15C00E940F
S11319A06706882389F40E94240C0EC080E00AC0D4
S11319B089E00E94760681E00E94C40483E00E94CC
S11319C0860787E00E948E0B8091B4019091B50147
S11319D0019771F482E090E09093B5018093B40193
S11319E0DE98DE9A80E00E940F0602C00E94C803BF
S11319F0812F99278FBFFF91EF91BF91AF919F9155
S1131A008F917F916F915F914F913F912F911F9192
S1131A100F900FBE0F901F901895EF92FF920F93A7
S1131A201F93CF93DF938B0180913F0290914002EB
S1131A3086FF40C18F7B8F3309F08EC1C091BF01F7
S1131A40D091C00158815093F5018091EE0190919D
S1131A50EF018530910509F443C08630910509F4FE
S1131A608AC0029709F01FC185E090E09093EF01CE
S1131A708093EE014091DA01852F99270196242F56
S1131A803327281739074CF1B79906C00E9904C0BB
S1131A90451B41504093DA014091F5014A32E8F484
S1131AA04423A1F0BE016F5F7F4F483018F047E038
S1131AB050E007C086E090E09093EF018093EE0140
S1131AC0552780E090E00E94670246C11092FD0114
S1131AD0C09A84E00E948607E3C00E9409083CC1C2
S1131AE086E090E09093EF018093EE0180910002F4
S1131AF0882309F439C08091B2028823A9F5898129
S1131B0085FF32C08F814E812FB7F89433276091BF
S1131B101302709114022FBF9927982F88275527F5
S1131B20842B952B8617970759F08F812E8199273F
S1131B30982F88273327822B932B8F5F9F4FA1F4F5
S1131B4089818770813081F4C09AC0988AE00E94AC
S1131B507606C09AC0984091F50147502896BE0178
S1131B608FE30E949106F8C04091F5014750552734
S1131B702896BE01A6CFC09A8091F901882339F432
S1131B8084E00E9486078091F901882311F0B799B7
S1131B900AC00E9B08C090911603992321F08091EE
S1131BA0F5018B3038F48091BF019091C0010E94FF
S1131BB09C033DC0913001F5E0911A03FF27EE0F1D
S1131BC0FF1FEE0FFF1FEE53FD4F20813181428135
S1131BD05381E091BF01F091C00121ABBB27A52F38
S1131BE0942F832F80ABCA01AA27BB2787A7252F51
S1131BF033274427552726A780911A03992701964E
S1131C0068E070E00E942C1A80931A0380911603F6
S1131C10815080931603882351F08091BF019091E5
S1131C20C0010E949C0310921A0310921603809123
S1131C30F501FE01E80FF11D808187FF31C0012B02
S1131C4079F169816770E091BF01F091C001623060
S1131C5019F5A0910102B0910202109709F1809147
S1131C60B9019091BA010797D9F4ED019B81838161
S1131C709817B1F487B78F7E87BF908181E08CA7D6
S1131C80E90FF11D8291319688A780818F7789A70A
S1131C9080E00E948E0B04C0613011F48BE02AC0F6
S1131CA00E94D40759C01092FD01C09A84E00E949A
S1131CB0860752C08E3309F04FC0C09A8091B90193
S1131CC09091BA010897C9F4C09889E00E947606F9
S1131CD0C09A83E00E94860781E090E09093BA0165
S1131CE08093B9018FB7F894992723E02093B30127
S1131CF08FBF84E00E94C6012FC0809126038823F1
S1131D0049F484E090E09093BA018093B9010E9471
S1131D10240C22C083E00E94860783E090E0909325
S1131D20BA018093B9010E947000DC01CB0166E323
S1131D3071E00E94181A3BE0E32EF12CE80EF91E24
S1131D40F092D501E092D4010E94AB030027112741
S1131D50A80197010E946804DF91CF911F910F9110
S1131D60FF90EF9008951F920F920FB60F921124D7
S1131D702F933F934F935F936F937F938F939F938F
S1131D80AF93BF93EF93FF932FB1E091A602F0912D
S1131D90A702309739F080917C0290917D02E80F80
S1131DA0F91F208380917C0290917D02019690938B
S1131DB07D0280937C0280E00E946E014091C1010B
S1131DC05091C20180917C0290917D028417950705
S1131DD018F40E94F9011CC06091A6027091A70238
S1131DE080912003909121031092A7021092A602E1
S1131DF010922103109220031092C2011092C1018B
S1131E0010927D0210927C022FB120E00E940D0DF1
S1131E10FF91EF91BF91AF919F918F917F916F91BE
S1131E205F914F913F912F910F900FBE0F901F9094
S1131E301895AF92BF92CF92DF92EF92FF920F93D9
S1131E401F93CF93DF93CDB7DEB7E7970FB6F89420
S1131E50DEBF0FBECDBF873009F46DC1883098F462
S1131E60833009F4EFC0843038F4813009F44EC073
S1131E70823008F061C020C0853009F43AC1863050
S1131E8008F052C1E5C08B3009F482C28C3038F4BA
S1131E90893009F446C28A3008F066C285C18D30A3
S1131EA009F4EDC48D3008F4B7C48E3009F43FC58D
S1131EB08F3009F09EC564C580911B03882309F403
S1131EC098C590E011E020911B03812F8223C1F07B
S1131ED0E92FFF27EE0FFF1FE258FD4F408151818C
S1131EE011821082812F8095282320931B0399232C
S1131EF039F463E0CA010E94C60A110F91E0E3CFEE
S1131F009F5F983008F075C5110FDDCF1091020165
S1131F10E12FFF27EE0FFF1FE258FD4FE080F18015
S1131F20118210820E94CE09112309F062C561E07A
S1131F30C7010E94C60A5DC50FB7F894112781E056
S1131F400E94C404E1E0EE2EF12CF092BA01E0927A
S1131F50B9011092BB011092DD011092F7010FBF7D
S1131F600FB7F89411270E949003F092EF01E092CA
S1131F70EE011092FD0189B78F7B89BF80E488BF91
S1131F808AB780628ABF8AB78F7E8ABF89B7806426
S1131F9089BF0FBF8FB7F894082F11278091B40120
S1131FA09091B501049719F483E00E9476060FBF5F
S1131FB00FB7F8941127C09A80E00E9486070FBFDC
S1131FC08FB7F894992722E02093AE028FBF109226
S1131FD0DC011092DB01A0E0B0E08091000190915F
S1131FE001019695879524E130E0A901849F900131
S1131FF0859F300D949F300D1124235F3E4F40E0A8
S113200050E0FD01EE0FFF1FE95EFD4FA20FB31F6D
S11320108C91992787FD9095918380834F5F5F4FC3
S1132020DA01443151056CF384E190E09093DC01D2
S11320308093DB0148EE53E060E070E081E00E94B1
S1132040D502D7C48FB7F89499271092AE0271C005
S11320508FB7F8949927F090B3018FBF63E081E0C4
S11320600E945701882359F10FB7F8941127109251
S1132070BA011092B90187B78F7E87BF87B78F7D6A
S113208087BF83E00E948607C09A0FBF0FB7F894FA
S113209011271092EF011092EE010E949003C09A52
S11320A089B78F7B89BF0FBF1092B5011092B4011D
S11320B0DE98DD98DE9A83E00E94C60107C08FB7E0
S11320C0F894992722E02093AE028FBF0091450235
S11320D0109146020E94880280911C0390911D0376
S11320E0892B09F086C48FEF80930A014F2DB80124
S11320F03EC48FB7F894282F3327122F80912403DE
S1132100882309F581E0809324038091B4019091A0
S1132110B501049721F481E00E940F0603C086E014
S11321200E94C6011FBF65C48FB7F8949927109207
S113213024038FBF5EC48FB7F894282F3327809170
S1132140B601882311F02FBF54C42FBF80B3992741
S113215046E0969587954A95E1F7182F117090916E
S11321601502809116028917D9F01917C9F484E071
S113217090E09093B5018093B4018FB7F8949927B8
S113218021E02093B6018FBF60E070E08DE10E94F2
S11321901A080E949405C09AC09882E00E94C60161
S11321A01093160287E06DC08FB7F89499271091A9
S11321B003018FBF123009F467C0133030F41123C8
S11321C059F0113009F015C448C0133009F476C031
S11321D0143009F00EC4A2C0C0988FB7F894082F29
S11321E011278091B4019091B5010297A1F583E084
S11321F090E09093B5018093B40168E170E08DE1C3
S11322000E941A0881E0809315021092B60180B3EF
S1132210992736E0969587953A95E1F78170907005
S11322208093160287E00E94C60181E00E94760630
S11322306FE772E08CE10E941A080E947B080E94FA
S1132240410866E57AE287E10E941A086FEF70E8B8
S113225085E10E941A080FBFCCC3C09886E00E9493
S113226076060E947B080E9441080E949405C09A49
S1132270C09883E00E947606C09A81E00E94860797
S113228086E00E94C601B5C3C0988FB7F894082FA2
S1132290112760E080E00E945701882311F00FBFEE
S11322A00AC00FBF83E50E94ED0180E00E94ED01AA
S11322B080E00E94ED01C09A82E02DC08FB7F894AF
S11322C099272091B9018FBF243039F0283041F08B
S11322D0223001F50E948C088CC30E94240C89C30F
S11322E0C09889E00E947606C09A83E00E9486071F
S11322F08FB7F894992721E030E03093BA01209306
S1132300B9018FBF8FB7F89499271093B3018FBF8A
S113231084E0B7CF83E00E9486076BC30E94C306A4
S113232068C30FB7F89411274091C1015091C201BD
S11323306091A6027091A7028091200390912103DD
S11323401092A7021092A602109221031092200369
S11323501092C2011092C10110927D0210927C026F
S113236020E00E940D0D77CF2FB7F894332780918A
S1132370FA018093060182E08093B8012FBF809117
S11323800601882309F035C3B89AC09888E079CF4C
S1132390A091BF01B091C0011C919D01210F311D7D
S11323A0F9018081881F8827881FFD0183A7F9010F
S11323B080818F77FD0181A721503040F901808110
S11323C0FD0180A7A091BF01B091C001FD01328140
S11323D08FB7F89499272091F8018FBF222309F42D
S11323E090C0832F992796958795969587958370A6
S11323F090708230910541F5878146812FB7F8941A
S1132400332760911302709114022FBF9927982FDC
S113241088275527842B952B8617970719F481E075
S113242090E06CC0FD018781268140E050E099274F
S1132430982F88273327822B932B8F5F9F4F11F47C
S113244041E050E0CA015AC0039709F0DCC19E0183
S1132450205F3F4F43EB52E088E0FA010190AF0167
S1132460F90101929F018150C1F79E01205D3F4F08
S1132470AE01405F5F4F88E0FA010190AF01F901BE
S113248001929F018150C1F79E01285E3F4FAE012A
S1132490405D5F4F88E0FA010190AF01F9010192BC
S11324A09F018150C1F79E01205E3F4FAE01485EFF
S11324B05F4F88E0FA010190AF01F90101929F0199
S11324C08150C1F79E01285D3F4FAE01405E5F4FD2
S11324D088E0FA010190AF01F90101929F01815056
S11324E0C1F748E050E0BE01685D7F4FCD0106961C
S11324F00E94951A892B09F086C103C0882309F428
S113250082C11D3008F47FC1C090BF01D090C001CA
S1132510F6012281822F9927F6E096958795FA9500
S1132520E1F7039719F468E070E002C062E070E03C
S1132530822F9927969587959695879583709070A5
S1132540039719F488E090E002C082E090E026E06E
S113255030E0C20ED31E40E050E020E030E0F6014F
S1132560E80FF91F8AEF9FEFC80ED91E05C08191AD
S1132570480F511D2F5F3F4F26173707C4F3F6014D
S113258063818FEF80931E038FB7F894782F20E038
S113259030E0E8ECF1E0808191818417950731F413
S11325A08281861709F4E7C020931E032F5F3F4FF3
S11325B033962430310579F77FBF90911E033FB7DE
S11325C0F8949F3F21F08091BC01891799F42091E0
S11325D0BC01822F9927FC01EE0FFF1FE80FF91FA2
S11325E0E853FE4F5183408362832F5F237020930F
S11325F0BC010CC0892F9927FC01EE0FFF1FE80FC7
S1132600F91FE853FE4F518340836283832F992738
S11326108FBF0FB7F8941127C6010E94F900FC017F
S113262090810FBFF60183A5882309F4E8C09F3386
S113263009F0E5C0878146812FB7F894332760916C
S11326400701709108012FBF9927982F88275527D4
S1132650842B952B8617970761F08781268199270C
S1132660982F88273327822B932B8F5F9F4F09F056
S1132670C6C0F6018385863009F0C1C0ACE0AA2E3D
S1132680B12CAC0CBD1C1092DC011092DB0111E0EA
S113269040E050E0F7E1EF2EF2E0FF2EB601615F7B
S11326A07F4FDB018D91BD019927F7012081318195
S11326B08217930709F010E04F5F5F4F5093DC01DE
S11326C04093DB0122E030E0E20EF31E4431510579
S11326D041F7F601878126819927982F8827332788
S11326E0822B932B8F5F9F4FC9F4D5018C9181303E
S11326F0A9F4112399F0F601818520859927982F53
S113270088273327822B932B909309028093080206
S11327100E94370A81E08093AF0171C0D5018C918A
S1132720813059F5112349F1F601818520859927D6
S1132730982F88273327822B932B90930902809319
S1132740080281E08093AF01809193028D7F809392
S113275093028091B001882331F040E65AEE60E0A4
S113276070E083E005C040E157E260E070E082E0A1
S11327700E94D50244C07FBF42C0F60181852085F6
S11327809927982F88273327822B932B209108028F
S1132790309109028217930791F5D5018C9182300B
S11327A071F5F501808D218D9927982F882733277E
S11327B0822B932B9093F2018093F101828D238DD0
S11327C09927982F88273327822B932B9093F401F2
S11327D08093F301848D8093F0018091A5028D7F15
S11327E08093A5020E94AE02AB01BC0191E0E92EE8
S11327F000E61AEE20E030E083E00E948F02D092DF
S1132800C001C092BF018FB7F89499271092FD01BF
S11328108FBF0E94D407EDC08091F601882361F533
S11328202091BE023091BF024091C0025091C1027A
S1132830EFB7F894FF276091A9027091AA028091E2
S1132840AB029091AC02E090D601F090D7010091D8
S1132850D8011091D9016E0D7F1D801F911FEFBF0C
S11328602093BE023093BF024093C0025093C10232
S11328701092F6010E9476030E94AE0243C00E94A9
S1132880AE025B016C018FB7F894992710927B021A
S11328908FBF8FEFE82E8FEFF82E8FEF082F8FE783
S11328A0182F60E0E2E8F2E0808581FF1CC080819F
S11328B09181A281B381A6019501281B390B4A0B92
S11328C05B0BDA01C9012481358146815781281BBC
S11328D0390B4A0B5B0B2E153F05400751071CF4BF
S11328E079018A0161E0399632E0E63AF307E1F6CC
S11328F0662309F47EC01E141F04100611062CF072
S1132900C601B5010E94060B74C0E092BE02F092AB
S1132910BF020093C0021093C10281E08093F601CC
S1132920A8019701C601B5010E94760362C0909187
S1132930070280910A01981709F45BC090930A0179
S11329409923D1F40091BD011091BE01609143021D
S1132950C8010E94D208482F5527442309F449C0CE
S11329608FEF80930A016091BD017091BE01F8015F
S113297083850E94A50B3DC08FEF80930A0139C067
S11329800E947000DC01CB016AE070E00E94181A1A
S11329908330910514F481E00AC08630910514F463
S11329A082E005C0099714F483E001C084E08983C0
S11329B0DE011696FE01319685E001900D9281505C
S11329C0E1F7DE011B96FE01369685E001900D923B
S11329D08150E1F7A0EFB1E0FE013B9685E0019064
S11329E00D928150E1F70E947C0A0E9470000E94BF
S11329F07000E7960FB6F894DEBF0FBECDBFDF912F
S1132A00CF911F910F91FF90EF90DF90CF90BF90E7
S1132A10AF900895809117038F3FB1F0282F33278B
S1132A20F901E252FE4F8081809317038F3F11F426
S1132A30809325038FEF80832F3F31F0822F0E94F4
S1132A40190F81E090E0089580E090E008951F93CD
S1132A50CF93DF93CDB7DEB7E0970FB6F894DEBF20
S1132A600FBECDBF1FB7F89440E150E06FEF70E0A8
S1132A708EED91E00E94A21A8FEF8093170380934A
S1132A80250381E08EBD88E080BF83E083BF8CB5E1
S1132A909DB54AE72CB53DB52817390708F44150D0
S1132AA0442311F0C901F6CF92B782B78917E9F32D
S1132AB02CB53DB592B782B78917E9F38CB59DB5AE
S1132AC0821B930B409625E0969587952A95E1F70E
S1132AD0909319038093180313BE83B78EBD8EB5EC
S1132AE080BF12BE1DBC1CBC8FEF86BF86B780930F
S1132AF07C0080B7992787709070892BD1F7D29A80
S1132B00D19AD09ADA9AD99AD89A15BA8FEF84BB07
S1132B10D498DC981DBC1CBC87B7846087BF8EB575
S1132B20887F84608EBD0E940A158823E1F7809116
S1132B300001909101010196AA27BB27809303020B
S1132B4090930402A0930502B09306028FEF809342
S1132B50FB01E8ECF1E08FEF9FEF91838083128219
S1132B60339621E0E43DF207C1F70E9470006093C0
S1132B70BD0280910001909101010196AA27BB2713
S1132B808093030290930402A0930502B09306027B
S1132B9080B7886080BF8BE083BF86EE81BF87B734
S1132BA0826087BF0E94F30282EE92E09093C0019C
S1132BB08093BF018E98B89A8C988FEF80930E0201
S1132BC01092AD021092AE021092AF021092B002B7
S1132BD0B89AD69AD59A8FB7F89499272091070175
S1132BE0309108018FBF30931402209313020E9486
S1132BF0D70429A73AA74BA75CA76DA77EA78FA7E1
S1132C0098ABDE019196FE01B99688E001900D9291
S1132C108150E1F7DE015196FE01B19688E0019002
S1132C200D928150E1F7DE015996FE01719688E01C
S1132C3001900D928150E1F7A3EBB2E0FE01799689
S1132C4088E001900D928150E1F780910901992764
S1132C509093FF018093FE018FE18093A8028AE1A3
S1132C608093BB020E94D70429A73AA74BA75CA76D
S1132C706DA77EA78FA798ABDE019196FE01B9964A
S1132C8088E001900D928150E1F7DE011196FE017A
S1132C90B19688E001900D928150E1F7DE0119961A
S1132CA0FE01319688E001900D928150E1F7A3EB8B
S1132CB0B2E0FE01399688E001900D928150E1F76F
S1132CC0A3EBB2E0FD0137969C9180818D939083B4
S1132CD0319782E0E63BF807B9F781E08093F80189
S1132CE010921F03809300021092B2020E940A15F0
S1132CF08823E1F7812F99278FBF78940E94C20B14
S1132D000E94C20B8FB7F894482F55274BC087B742
S1132D10992783709070892B19F4E5E0F0E013C0D3
S1132D2080B7992787709070892BD1F781B792B7B4
S1132D30891B8C3030F082B7853F18F4E3E0F0E073
S1132D4002C0E2E0F0E087B7887BC1F480917D00A7
S1132D508B7FA1F46E9912C08AB190919A00892B4D
S1132D60887161F48091740082FD08C0379B03C0B0
S1132D7081E090E005C085E090E002C080E090E052
S1132D8025B78E1708F4E82FFF27E457FF4FE49187
S1132D90237E2062E22BE5BF78948895F89485B76A
S1132DA08F7D85BF809117038F3F09F4B0CF282F03
S1132DB03327F901E252FE4F8081809317038F3F3E
S1132DC011F4809325038FEF80832F3F09F49FCF65
S1132DD04FBF822F0E94190F95CF78941F920F92A4
S1132DE00FB60F9211242F923F924F925F926F92DF
S1132DF07F928F929F92AF92BF92CF92DF92EF9287
S1132E00FF920F931F932F933F934F935F936F936F
S1132E107F938F939F93AF93BF93CF93DF93EF935E
S1132E20FF93C6B5D7B58FB7F894282E0E94AB038D
S1132E309B012C1B3D0B442755272B013C01421AB7
S1132E40530A640A750A8091B9019091BA018530D8
S1132E50910521F0069709F0E0C0BFC086E090E03C
S1132E609093BA018093B90131E0332E3092FC0182
S1132E701092BB0180E00E94C404E0910102F09131
S1132E80020241AABB27A72D962D852D80ABC30135
S1132E90AA27BB2787A7872D9927AA27BB2786A7F9
S1132EA0E0910102F091020285A5882309F484C00F
S1132EB06081655077274F01860E971EF4012081AB
S1132EC0E1808281A3809927AA27BB27BA2FA92F43
S1132ED0982F8827332744275527522F44273327F1
S1132EE02227FF24002711278701FF24EE242E29FF
S1132EF03F29402B512BBB24CC24DD242A293B29F8
S1132F004C295D29822B932BA42BB52B841995096D
S1132F10A609B7098383292F3A2F4B2F55272283DC
S1132F209D014427552721838B2F9927AA27BB2747
S1132F308083C09824E0A40180E090E00E94830490
S1132F40C09AF4012081E1808281A3809927AA2775
S1132F50BB27BA2FA92F982F882733274427552713
S1132F60522F442733272227FF24002711278701C4
S1132F70FF24EE242E293F29402B512BBB24CC24A3
S1132F80DD242A293B294C295D29822B932BA42B50
S1132F90B52B840D951DA61DB71D8383292F3A2FAC
S1132FA04B2F552722839D014427552721838B2F9F
S1132FB09927AA27BB278083E0910102F09102029E
S1132FC0818185FF02C03092DD0183E00E94860783
S1132FD087B78F7E87BF84997AC01092FC0181E005
S1132FE00E94C404E0910102F0910202818185FFF4
S1132FF00FC087E090E09093BA018093B9010E94DA
S1133000AB0320E031E040E050E00E94680403C0DC
S113301080E00E948E0B849B5AC08091BB01882360
S113302091F58091FC01882371F511E01093FC0166
S11330300E94C40480B320911603283098F4E091D0
S11330401A03E20FFF27E770F070EE0FFF1FEE0F79
S1133050FF1FEE53FD4F40825182628273822F5FC5
S1133060209316031093BB01D0934202C0934102F4
S113307084992DC0992734E0969587953A95E1F780
S1133080182F117001C010E08091FC018130F9F417
S11330901092FC010E94C4041092BB011123B9F4E4
S11330A08091410290914202C81BD90B2A9778F46F
S11330B080911603882319F0815080931603809120
S11330C0010290910202009711F00E949C032FBE0E
S11330D0FF91EF91DF91CF91BF91AF919F918F912C
S11330E07F916F915F914F913F912F911F910F911C
S11330F0FF90EF90DF90CF90BF90AF909F908F9014
S11331007F906F905F904F903F902F900F900FBEE5
S11331100F901F901895ACE2B0E0E1E9F8E10C944F
S11331205E1A222E332E442E552E662E772E882E8E
S1133130992EFE013196A8E01192AA95E9F7298209
S11331403A824B825C826D827E828F829886FE01F7
S11331503996B8E01192BA95E9F7A986BA86CB8672
S1133160DC86ED86FE860F87188B89819A81AB8178
S1133170BC8189A79AA7ABA7BCA77C018D018FEF5F
S11331809FEFA0E0B0E0E822F9220A231B2389A5DF
S11331909AA5ABA5BCA51D014424552489859A850F
S11331A0AB85BC858DA39EA3AFA3B8A75C016D01BD
S11331B08FEF9FEFA0E0B0E0A822B922CA22DB2261
S11331C08DA19EA1AFA1B8A53D0188249924C80171
S11331D0B701A60195010E943F1A69A37AA38BA3A4
S11331E09CA3C801B701A40193010E943F1A7B016B
S11331F08C01C201B101A60195010E943F1A5B0135
S11332006C01C201B101A40193010E943F1A3B0168
S11332104C01EA0CFB1C0C1D1D1D89A19AA1ABA13C
S1133220BCA19D01442755272E0D3F1D401F511F52
S11332302A153B054C055D0540F480E090E0A1E0D3
S1133240B0E0680E791E8A1E9B1ECA01AA27BB27FE
S1133250860D971DA81DB91D8D8F9E8FAF8FB8A3A6
S1133260A9013327222789A19AA1ABA1BCA1A070EF
S1133270B070280F391F4A1F5B1F298F3A8F4B8F5D
S11332805C8FA98CBA8CCB8CDC8CED8CFE8C0F8D76
S113329018A1FE01719698E011929A95E9F7ED8ACA
S11332A0FE8A0F8B188F2D813E814F8158856DA129
S11332B07EA18FA198A50E943F1A3B014C012D8548
S11332C03E854F85588969A57AA58BA59CA50E9442
S11332D03F1A2D893E894F89588D260F371F481F65
S11332E0591F260D371D481D591D2D8B3E8B4F8BA5
S11332F0588F6D887E888F88988C2A2D3B2D4C2D75
S11333005D2D662D772D882D992DE2E1AC960C94D8
S11333107A1AA0E1B0E0EFE8F9E10C945E1A222EEB
S1133320332E442E552E662E772E882E992E00236A
S113333009F466C088E0FE01319611928A95E9F796
S113334029833A834B835C836D837E838F82988742
S1133350E0E2E01B1E16CCF52D813E814F8158859D
S1133360602F772767FD7095DA01C901062E04C026
S1133370B695A795979587950A94D2F78D879E87DA
S1133380AF87B88B04C0220F331F441F551FEA9523
S1133390D2F789819A81AB81BC8104C0B695A79587
S11333A0979587956A95D2F7282B392B4A2B5B2B57
S11333B029873A874B875C8729843A844B845C84C9
S11333C06D847E848F8498881BC01D861E861F860C
S11333D0188A2E2F332727FD3095309521953F4F9E
S11333E08D819E81AF81B88504C0B695A7959795C8
S11333F087952A95D2F789879A87AB87BC87DCCFD4
S1133400222D332D442D552D662D772D882D992D64
S1133410E2E160960C947A1A991B79E004C0991F32
S1133420961708F0961B881F7A95C9F7809508951A
S1133430AA1BBB1B51E107C0AA1FBB1FA617B707D6
S113344010F0A61BB70B881F991F5A95A9F78095F2
S11334509095BC01CD01089597FB092E07260AD04B
S113346077FD04D0E5DF06D000201AF4709561954D
S11334707F4F0895F6F7909581959F4F0895629F29
S1133480D001739FF001829FE00DF11D649FE00D58
S1133490F11D929FF00D839FF00D749FF00D659FB9
S11334A0F00D9927729FB00DE11DF91F639FB00DB8
S11334B0E11DF91FBD01CF01112408952F923F9200
S11334C04F925F926F927F928F929F92AF92BF9230
S11334D0CF92DF92EF92FF920F931F93CF93DF93DC
S11334E0CDB7DEB7CA1BDB0B0FB6F894DEBF0FBE39
S11334F0CDBF09942A88398848885F846E847D8486
S11335008C849B84AA84B984C884DF80EE80FD8087
S11335100C811B81AA81B981CE0FD11D0FB6F894FD
S1133520DEBF0FBECDBFED010895FB01DC0104C079
S11335308D910190801921F441505040C8F7881BA7
S1133540990B0895DC0101C06D9341505040E0F7A0
S10735500895FFCF08
S1133554010001FFFFFFFF010022FFFFFF4244328D
S113356464335673424E4973664A4F36386449622B
S113357479424642443264335673424E4973664A2E
S11335844F3638644978723367427468766468766F
S11335944668764236694855487967786262426279
S11335A43755555955594769756269756873616327
S11335B4757963616762374E756E307539306D396C
S11335C449494D494D6930396939696F696E686291
S11335D476646335637136357637367462386E399A
S11335E4387530396D75396E386E7579623862792B
S11135F46E3938756979693875397542460043
S9030000FC
